00COTAHIST.2026     BOVESPA 20260225
012026022502PETR4       010PETROBRAS   PN      N1   R$  000000000100000000003520000000000365000000000003480000000000035800000000000358000000000003580000000000035800030000000000000300000000000107400000000000000000000000000000000000009999123456789
012026022502VALE3       010VALE        ON      N1   R$  000000000100000000006250000000000638000000000006180000000000063500000000000635000000000006350000000000063500025000000000000250000000000158750000000000000000000000000000000000009999123456789
012026022502ITUB4       010ITAUUNIBANCOPN  EDJ N1   R$  000000000100000000003180000000000325000000000003120000000000032000000000000320000000000003200000000000032000018000000000000180000000000057600000000000000000000000000000000000009999123456789
012026022502BBDC4       010BRADESCO    PN  EJ  N1   R$  000000000100000000001450000000000152000000000001420000000000014800000000000148000000000001480000000000014800012000000000000120000000000017760000000000000000000000000000000000009999123456789
012026022502WEGE3       010WEG         ON      NM   R$  000000000100000000004520000000000458000000000004480000000000045500000000000455000000000004550000000000045500008000000000000080000000000036400000000000000000000000000000000000009999123456789
012026022596PETR4F      020PETROBRAS   PN      N1   R$  000000000100000000003520000000000365000000000003480000000000035800000000000358000000000003580000000000035800001000000000000010000000000003580000000000000000000000000000000000009999123456789
012026022512ABEV3       010AMBEV       ON      NM   R$  000000000100000000001280000000000132000000000001250000000000013000000000000130000000000001300000000000013000015000000000000150000000000019500000000000000000000000000000000000009999123456789
99COTAHIST.2026     BOVESPA 2026022500000008
